:100000000C9462000C948A000C948A000C948A0070
:100010000C948A000C948A000C948A000C948A0038
:100020000C948A000C948A000C948A000C948A0028
:100030000C948A000C948A000C948A000C948A0018
:100040000C94B0020C948A000C9420030C94FA02D5
:100050000C948A000C948A000C948A000C948A00F8
:100060000C948A000C948A000000000023002600F3
:10007000290000000000240027002A0000000000E2
:10008000250028002B0004040404040404040202D4
:100090000202020203030303030301020408102007
:1000A0004080010204081020010204081020000012
:1000B0000008000201000003040700000000000027
:1000C0000000D60411241FBECFEFD8E0DEBFCDBFA5
:1000D00011E0A0E0B1E0EAEAFAE002C005900D927A
:1000E000A832B107D9F721E0A8E2B1E001C01D9222
:1000F000A03DB207E1F710E0C2E6D0E004C02197CE
:10010000FE010E944D05C136D107C9F70E94520376
:100110000C9453050C940000833081F028F4813056
:1001200099F08230A9F008958730A9F08830C9F09D
:100130008430B1F4809180008F7D03C08091800075
:100140008F7780938000089584B58F7784BD08955C
:1001500084B58F7DFBCF8091B0008F778093B00006
:1001600008958091B0008F7DF9CF1F93CF93DF93D7
:10017000282F30E0F901E255FF4F8491F901E6564E
:10018000FF4FD491F901EA57FF4FC491CC23A9F056
:10019000162F81110E948C00EC2FF0E0EE0FFF1F54
:1001A000E458FF4FA591B4918FB7F894EC911111D9
:1001B00008C0D095DE23DC938FBFDF91CF911F91D4
:1001C0000895DE2BF8CFCF93DF9390E0FC01E65645
:1001D000FF4F24918A579F4FFC0184918823D1F0CF
:1001E00090E0880F991FFC01EE58FF4FA591B49144
:1001F000FC01E458FF4FC591D491623071F49FB770
:10020000F8943C91822F809583238C93E8812E2B48
:1002100028839FBFDF91CF9108958FB7F894EC9119
:100220002E2B2C938FBFF6CF1F93CF93DF93182FD6
:10023000EB0161E00E94E300209739F460E0812F38
:10024000DF91CF911F910C94B500CF3FD10511F4F0
:1002500061E0F5CFE12FF0E0E255FF4FE491E330AC
:1002600031F140F4E130B1F0E230E1F0C038D105D5
:100270007CF7E4CFE73029F1E83059F1E430B1F709
:1002800080918000806280938000D0938B00C09327
:100290008A0004C084B5806884BDC7BDDF91CF915A
:1002A0001F91089584B5806284BDC8BDF7CF809149
:1002B0008000806880938000D0938900C09388007C
:1002C000EDCF8091B00080688093B000C093B30000
:1002D000E5CF8091B00080628093B000C093B400FD
:1002E000DDCF3FB7F89480912F0190913001A0911C
:1002F0003101B091320126B5A89B05C02F3F19F0FE
:100300000196A11DB11D3FBFBA2FA92F982F882795
:10031000BC01CD01620F711D811D911D42E0660F70
:10032000771F881F991F4A95D1F70895AF92BF9202
:10033000CF92DF92EF92FF920F931F93CF93DF93B1
:100340006C017B018B01040F151FEB015E01AE18E0
:10035000BF08C017D10759F06991D601ED91FC9102
:100360000190F081E02DC6010995892B79F7C5012F
:10037000DF91CF911F910F91FF90EF90DF90CF9081
:10038000BF90AF900895FC01538D448D252F30E030
:10039000842F90E0821B930B541710F0CF96089592
:1003A00001970895FC01918D828D981761F0A28DBF
:1003B000AE0FBF2FB11D5D968C91928D9F5F9F7385
:1003C000928F90E008958FEF9FEF0895FC01918D3B
:1003D000828D981731F0828DE80FF11D858D90E0A8
:1003E00008958FEF9FEF0895FC01918D228D892F45
:1003F00090E0805C9F4F821B91098F73992708952D
:1004000083E391E00E94F40121E0892B09F420E0CC
:10041000822F089580E090E0892B29F00E9400024D
:1004200081110C9400000895FC01A48DA80FB92F30
:10043000B11DA35ABF4F2C91848D90E001968F730C
:100440009927848FA689B7892C93A089B1898C912B
:10045000837080648C93938D848D981306C002887A
:10046000F389E02D80818F7D80830895EF92FF9244
:100470000F931F93CF93DF93EC0181E0888F9B8DC7
:100480008C8D98131AC0E889F989808185FF15C081
:100490009FB7F894EE89FF896083E889F9898081A4
:1004A0008370806480839FBF81E090E0DF91CF9173
:1004B0001F910F91FF90EF900895F62E0B8D10E095
:1004C0000F5F1F4F0F731127E02E8C8D8E110CC004
:1004D0000FB607FCFACFE889F989808185FFF5CF4F
:1004E000CE010E941402F1CFEB8DEC0FFD2FF11D18
:1004F000E35AFF4FF0829FB7F8940B8FEA89FB898C
:1005000080818062CFCFCF93DF93EC01888D8823E9
:10051000B9F0AA89BB89E889F9898C9185FD03C066
:10052000808186FD0DC00FB607FCF7CF8C9185FF4B
:10053000F2CF808185FFEDCFCE010E941402E9CF7A
:10054000DF91CF910895FC0101900020E9F73197E8
:10055000AF01481B590BBC0183E391E00C94960159
:100560001F920F920FB60F9211242F933F938F93E8
:100570009F93AF93BF9380912B0190912C01A091F9
:100580002D01B0912E0130912A0123E0230F2D3748
:1005900058F50196A11DB11D20932A0180932B01CE
:1005A00090932C01A0932D01B0932E0180912F01E7
:1005B00090913001A0913101B09132010196A11DBD
:1005C000B11D80932F0190933001A0933101B0931E
:1005D0003201BF91AF919F918F913F912F910F90D9
:1005E0000FBE0F901F90189526E8230F0296A11DAD
:1005F000B11DD2CF1F920F920FB60F9211242F93DD
:100600003F934F935F936F937F938F939F93AF939A
:10061000BF93EF93FF9383E391E00E941402FF9155
:10062000EF91BF91AF919F918F917F916F915F916A
:100630004F913F912F910F900FBE0F901F901895E3
:100640001F920F920FB60F9211242F938F939F93A7
:10065000EF93FF93E0914301F09144018081E09199
:100660004901F0914A0182FD1BC0908180914C01AB
:100670008F5F8F7320914D01821741F0E0914C0103
:10068000F0E0ED5CFE4F958F80934C01FF91EF9170
:100690009F918F912F910F900FBE0F901F901895E3
:1006A0008081F4CFCF93DF93CDB7DEB7A1970FB69C
:1006B000F894DEBF0FBECDBF789484B5826084BD50
:1006C00084B5816084BD85B5826085BD85B5816056
:1006D00085BD80916E00816080936E0010928100D4
:1006E000809181008260809381008091810081608F
:1006F0008093810080918000816080938000809150
:10070000B10084608093B1008091B00081608093DB
:10071000B00080917A00846080937A0080917A00A2
:10072000826080937A0080917A00816080937A0061
:1007300080917A00806880937A001092C10062E014
:1007400082E00E94E30061E083E00E94E30061E058
:1007500084E00E94E30061E085E00E94E300E09114
:100760004301F091440182E08083E0913F01F091E8
:1007700040011082E0914101F09142018FEC8083B1
:1007800010924B01E0914701F091480186E080838F
:10079000E0914501F0914601808180618083E09184
:1007A0004501F0914601808188608083E091450198
:1007B000F0914601808180688083E0914501F0914D
:1007C000460180818F7D808304E010E02AE0422E84
:1007D000512C612C712C30E0232E30E0332EE0EBD5
:1007E000F0E08491ECE9F0E0F490E8E8F0E0E490E7
:1007F000E11069C080912801909129010196B8010A
:100800000E940305909329018093280182E191E0E1
:100810000E94A302C0902801D09029010D2C000C49
:10082000EE08FF08F7FE75C06DE283E391E00E94D9
:10083000360222273327A9012C193D094E095F09E9
:1008400019A2CE0181967C01CA01B901A3019201CE
:100850000E941705605DF70162937F012115310544
:100860004105510589F7E114F10419F0C7010E940F
:10087000A30284E291E00E94A3020E9471014B0155
:100880005C018CE2C82EDD24D394E12CF12C0E9473
:100890007101681979098A099B09683E73408105CD
:1008A0009105A8F3F1E0CF1AD108E108F10828EE8C
:1008B000820E23E0921EA11CB11CC114D104E104DC
:1008C000F10429F70FC081110E948C00EE2DF0E099
:1008D000EE0FFF1FE859FF4FA591B4918C91F822BC
:1008E00009F488CF809128019091290181309105E8
:1008F00009F444C024F5892BA1F12114310409F431
:100900006ECF0E940002882309F469CF0E94000084
:1009100066CFA701960119A2CE0181967C01CA017A
:10092000B901A30192010E941705605DF70162936E
:100930007F01211531054105510589F794CF82309A
:10094000910561F10397C9F670E060E083E00E94D1
:10095000140170E060E084E00E9414016FEF70E029
:1009600019C060E083E00E94B50060E084E00E946E
:10097000B50060E085E00E94B500BFCF60E870E0A0
:1009800083E00E94140170E060E084E00E941401A2
:1009900070E060E085E00E941401AFCF70E060E09D
:1009A00083E00E94140160E870E0EFCFE3E3F1E040
:1009B0001382128288EE93E0A0E0B0E084839583F6
:1009C000A683B78384E091E09183808385EC90E0F7
:1009D0009587848784EC90E09787868780EC90E009
:1009E000918B808B81EC90E0938B828B82EC90E0FA
:1009F000958B848B86EC90E0978B868B118E128E74
:100A0000138E148E089597FB072E16F4009407D0CA
:100A100077FD09D00E94390507FC05D03EF490957A
:100A200081959F4F0895709561957F4F0895A1E23C
:100A30001A2EAA1BBB1BFD010DC0AA1FBB1FEE1F58
:100A4000FF1FA217B307E407F50720F0A21BB30BA3
:100A5000E40BF50B661F771F881F991F1A9469F71F
:100A600060957095809590959B01AC01BD01CF017B
:100A70000895AA1BBB1B51E107C0AA1FBB1FA617E5
:100A8000B70710F0A61BB70B881F991F5A95A9F737
:100A900080959095BC01CD010895EE0FFF1F059044
:0A0AA000F491E02D0994F894FFCFC3
:100AAA000000000036029601C3018302F401D2015C
:100ABA00E6014D6F6465206368616E676564207442
:080ACA006F3A20000D0A000044
:00000001FF
