:100000000C945D000C9411030C94EA020C9485008E
:100010000C9485000C9485000C9485000C9485004C
:100020000C9485000C9485000C9485000C9485003C
:100030000C9485000C9485000C9485000C9485002C
:100040000C94A0020C9485000C945E030C9438036D
:100050000C9485000C9485000C9485000C9485000C
:100060000C9485000C9485000000000024002700FB
:100070002A0000000000250028002B0004040404CE
:100080000404040402020202020203030303030342
:10009000010204081020408001020408102001021F
:1000A00004081020000000080002010000030407FB
:1000B00000000000000000008F0411241FBECFEFDD
:1000C000D8E0DEBFCDBF11E0A0E0B1E0E8E8F9E0A4
:1000D00002C005900D92A234B107D9F721E0A2E445
:1000E000B1E001C01D92AA3EB207E1F710E0CDE5F4
:1000F000D0E004C02197FE010E94BC04CC35D1079A
:10010000C9F70E9490030C94C2040C94000090E084
:10011000FC01EC55FF4F2491FC01E057FF4F349157
:10012000FC01E458FF4FE491EE23C9F0222339F09B
:10013000233001F1A8F4213019F1223029F1F0E047
:10014000EE0FFF1FEE58FF4FA591B4918FB7F894B3
:10015000EC91611126C030953E233C938FBF0895EA
:100160002730A9F02830C9F0243049F78091800069
:100170008F7D03C0809180008F7780938000DFCFD8
:1001800084B58F7784BDDBCF84B58F7DFBCF809125
:10019000B0008F778093B000D2CF8091B0008F7D78
:1001A000F9CF3E2BDACFCF93DF9390E0FC01E057FD
:1001B000FF4F249184589F4FFC0184918823D1F0F4
:1001C00090E0880F991FFC01E859FF4FA591B49169
:1001D000FC01EE58FF4FC591D49161110EC09FB73D
:1001E000F8948C91E22FE0958E238C932881E22362
:1001F000E8839FBFDF91CF9108958FB7F894EC917A
:10020000E22BEC938FBFF6CF3FB7F8948091490172
:1002100090914A01A0914B01B0914C0126B5A89B49
:1002200005C02F3F19F00196A11DB11D3FBFBA2F88
:10023000A92F982F8827BC01CD01620F711D811D48
:10024000911D42E0660F771F881F991F4A95D1F7CD
:1002500008958F929F92AF92BF92CF92DF92EF92CA
:10026000FF924B015C010E9404016B017C010E9422
:1002700004016C197D098E099F09683E7340810550
:100280009105A8F321E0821A9108A108B10888EE2F
:10029000C80E83E0D81EE11CF11C81149104A10456
:1002A000B10429F7FF90EF90DF90CF90BF90AF900F
:1002B0009F908F9008958091420190914301019603
:1002C0008430910554F4909343018093420164E695
:1002D00070E080E090E00C942901109243011092AC
:1002E0004201F5CF0895AF92BF92CF92DF92EF9285
:1002F000FF920F931F93CF93DF936C017B018B01D0
:10030000040F151FEB015E01AE18BF08C017D1071F
:1003100059F06991D601ED91FC910190F081E02DA9
:10032000C6010995892B79F7C501DF91CF911F91FE
:100330000F91FF90EF90DF90CF90BF90AF90089516
:10034000FC01538D448D252F30E0842F90E0821BDB
:10035000930B541710F0CF96089501970895FC0160
:10036000918D828D981761F0A28DAE0FBF2FB11DB8
:100370005D968C91928D9F5F9F73928F90E0089510
:100380008FEF9FEF0895FC01918D828D981731F0CA
:10039000828DE80FF11D858D90E008958FEF9FEF1E
:1003A0000895FC01918D228D892F90E0805C9F4FF4
:1003B000821B91098F73992708958DE491E00E9423
:1003C000D10121E0892B09F420E0822F089580E0FB
:1003D00090E0892B29F00E94DD0181110C9400002E
:1003E0000895FC01A48DA80FB92FB11DA35ABF4FCA
:1003F0002C91848D90E001968F739927848FA68924
:10040000B7892C93A089B1898C91837080648C9377
:10041000938D848D981306C00288F389E02D808126
:100420008F7D80830895EF92FF920F931F93CF9358
:10043000DF93EC0181E0888F9B8D8C8D98131AC01F
:10044000E889F989808185FF15C09FB7F894EE8906
:10045000FF896083E889F989808183708064808363
:100460009FBF81E090E0DF91CF911F910F91FF90AE
:10047000EF900895F62E0B8D10E00F5F1F4F0F7356
:100480001127E02E8C8D8E110CC00FB607FCFACF11
:10049000E889F989808185FFF5CFCE010E94F101BD
:1004A000F1CFEB8DEC0FFD2FF11DE35AFF4FF082E2
:1004B0009FB7F8940B8FEA89FB8980818062CFCF48
:1004C000CF93DF93EC01888D8823B9F0AA89BB898B
:1004D000E889F9898C9185FD03C0808186FD0DC076
:1004E0000FB607FCF7CF8C9185FFF2CF808185FF97
:1004F000EDCFCE010E94F101E9CFDF91CF910895B8
:1005000061E085E00E94870061E086E00E9487004C
:1005100061E087E00C94870060E085E00E9487003E
:1005200060E086E00E94870060E087E00C9487002E
:1005300042E050E066E171E08DE491E00C947301DB
:100540001F920F920FB60F9211242F933F938F9308
:100550009F93AF93BF938091450190914601A091E5
:100560004701B09148013091440123E0230F2D371A
:1005700058F50196A11DB11D2093440180934501BA
:1005800090934601A0934701B0934801809149019F
:1005900090914A01A0914B01B0914C010196A11D8F
:1005A000B11D8093490190934A01A0934B01B093F0
:1005B0004C01BF91AF919F918F913F912F910F90DF
:1005C0000FBE0F901F90189526E8230F0296A11DCD
:1005D000B11DD2CF1F920F920FB60F9211242F93FD
:1005E0003F934F935F936F937F938F939F93AF93BB
:1005F000BF93EF93FF93E0910201F09103010995FE
:10060000FF91EF91BF91AF919F918F917F916F91EA
:100610005F914F913F912F910F900FBE0F901F90C0
:1006200018951F920F920FB60F9211242F933F939C
:100630004F935F936F937F938F939F93AF93BF93EA
:10064000EF93FF93E0910001F09101010995FF9173
:10065000EF91BF91AF919F918F917F916F915F913A
:100660004F913F912F910F900FBE0F901F901895B3
:100670001F920F920FB60F9211242F933F934F9317
:100680005F936F937F938F939F93AF93BF93EF93FA
:10069000FF938DE491E00E94F101FF91EF91BF91F2
:1006A000AF919F918F917F916F915F914F913F910A
:1006B0002F910F900FBE0F901F9018951F920F92C1
:1006C0000FB60F9211242F938F939F93EF93FF9365
:1006D000E0915D01F0915E018081E0916301F09114
:1006E000640182FD1BC09081809166018F5F8F73D2
:1006F00020916701821741F0E0916601F0E0E35B31
:10070000FE4F958F80936601FF91EF919F918F919E
:100710002F910F900FBE0F901F9018958081F4CFEE
:10072000789484B5826084BD84B5816084BD85B5CC
:10073000826085BD85B5816085BD80916E008160D8
:1007400080936E001092810080918100826080937E
:100750008100809181008160809381008091800080
:100760008160809380008091B10084608093B100AB
:100770008091B00081608093B00080917A008460A5
:1007800080937A0080917A00826080937A008091D1
:100790007A00816080937A0080917A0080688093EB
:1007A0007A001092C10060E082E00E94D30061E014
:1007B00085E00E94D30061E086E00E94D30061E002
:1007C00087E00E94D300E0915D01F0915E0182E03C
:1007D0008083E0915901F0915A011082E0915B0110
:1007E000F0915C018FEC808310926501E0916101D2
:1007F000F091620186E08083E0915F01F0916001F9
:10080000808180618083E0915F01F091600180814F
:1008100088608083E0915F01F09160018081806851
:100820008083E0915F01F091600180818F7D808302
:100830008BE591E090930101809300018091690024
:100840008C7F826080936900E89AC0E0D0E080915C
:100850004201909143018130910579F15CF4892B3B
:10086000F9F02097A1F30E94DD01882381F30E9413
:100870000000EDCF8230910539F1039791F70E9486
:10088000800266E970E080E090E00E9429010E9409
:100890008C0266E970E080E090E00E942901E1CFDF
:1008A0000E948C0244E150E069E171E08DE491E046
:1008B0000E9473010E949802D4CF0E94800243E1FB
:1008C00050E06EE271E0F2CF61E085E00E948700C7
:1008D00068EC70E080E090E00E94290160E085E033
:1008E0000E94870061E086E00E94870068EC70E06B
:1008F00080E090E00E94290160E086E00E9487008D
:1009000061E087E00E94870068EC70E080E090E0A2
:100910000E94290160E087E00E948700A2CFEDE4F9
:10092000F1E01382128288EE93E0A0E0B0E08483CD
:100930009583A683B78388E091E09183808385ECDB
:1009400090E09587848784EC90E09787868780EC99
:1009500090E0918B808B81EC90E0938B828B82EC8A
:1009600090E0958B848B86EC90E0978B868B118E34
:10097000128E138E148E0895EE0FFF1F0590F491C2
:08098000E02D0994F894FFCF6B
:10098800720172010000000013027301A0016002ED
:10099800D101AF01C3010D0A004D6F646520303AE3
:1009A80020416C6C204C454473204F4646004D6FE7
:1009B800646520313A20416C6C204C454473204FCB
:0209C8004E00DF
:00000001FF
